:100000000C9463000C948B000C948B000C948B006C
:100010000C948B000C948B000C948B000C948B0034
:100020000C948B000C948B000C948B000C948B0024
:100030000C948B000C948B000C948B000C948B0014
:100040000C943F070C948B000C94AF070C94890719
:100050000C948B000C948B000C948B000C948B00F4
:100060000C9411060C948B001F1C1F1E1F1E1F1FBB
:100070001E1F1E00000000240027002A00000000B0
:1000800000250028002B00040404040404040402D6
:100090000202020202030303030303010204081025
:1000A00020408001020408102001020408102000F2
:1000B0000000080002010000030407000000000027
:1000C00000000000E10711241FBECFEFD4E0DEBF27
:1000D000CDBF22E0A4E2B1E001C01D92A439B20775
:1000E000E1F711E0A0E0B1E0E2E9F2E102C0059041
:1000F0000D92A432B107D9F710E0C3E6D0E004C0F6
:100100002197FE010E943C09C236D107C9F70E941F
:100110001A080C9447090C94000040917601262F90
:1001200030E0240F311D21323105DCF42091C10172
:100130002430C9F4FC0180E090E0861758F4309137
:1001400076012191DC01AC5ABE4FA30FB11D2C9357
:100150000196F3CF80917601680F6093760180E07D
:10016000089581E0089582E008950895089508951E
:10017000E091520180915101E81730F4F0E0EF5C1A
:10018000FE4F808190E008958FEF9FEF089590914A
:10019000520180915101981750F4E92FF0E0EF5C83
:1001A000FE4F208130E09F5F9093520102C02FEFFD
:1001B0003FEFC90108958091510190E020915201D3
:1001C000821B91090895CF92DF92EF92FF920F93D5
:1001D0001F93CF93DF937C01CB018A012091C7014C
:1001E000222389F0EB016B01C40ED51ECC15DD0571
:1001F00069F06991D701ED91FC910190F081E02DBA
:10020000C7010995F3CF642F0E948D00C801DF91CB
:10021000CF911F910F91FF90EF90DF90CF900895B5
:10022000CF93DF931F92CDB7DEB769832091C701CB
:100230002223D1F02091EA01203240F021E030E089
:10024000FC013383228380E090E015C08091C801D7
:10025000E82FF0E0E753FE4F998190838F5F809302
:10026000C8018093EA0105C061E0CE0101960E94B9
:100270008D0081E090E00F90DF91CF91089590E0A4
:10028000FC01E155FF4F2491FC01E556FF4F3491ED
:10029000FC01E957FF4FE491EE2309F43CC022230F
:1002A00039F1233091F038F42130A9F0223001F5F2
:1002B00084B58F7D12C0273091F02830A1F0243012
:1002C000B9F4809180008F7D03C0809180008F778A
:1002D000809380000DC084B58F7784BD09C0809164
:1002E000B0008F7703C08091B0008F7D8093B00005
:1002F000F0E0EE0FFF1FE358FF4FA591B4919FB7B9
:10030000F894611104C08C913095382302C0EC91AF
:100310003E2B3C939FBF08951092C10181E08093D2
:10032000C00110929B0161E082E10E943F0161E007
:1003300083E10E943F01E9EBF0E080818E7F8083C2
:1003400080818D7F808388E48093B80085E48093EA
:10035000BC000895CF93DF9391E0909353018823DD
:10036000B9F0C091B800D091BA008091BC008A7BEE
:100370008093BC0060E082E10E943F0160E083E185
:100380000E943F010E948C01D093BA00C093B80034
:10039000DF91CF9108953FB7F89480912D0190910E
:1003A0002E01A0912F01B091300126B5A89B05C068
:1003B0002F3F19F00196A11DB11D3FBFBA2FA92FE4
:1003C000982F8827820F911DA11DB11DBC01CD0161
:1003D00042E0660F771F881F991F4A95D1F708954D
:1003E0008F929F92AF92BF92CF92DF92EF92FF9245
:1003F0000F931F93CF93DF931091EA01113208F00E
:10040000C2C0082FD091E9010E94CB016B017C0191
:10041000C091C101CC2311F18091C3019091C4011D
:10042000A091C501B091C601892B8A2B8B2B81F33A
:100430000E94CB018090C3019090C401A090C5019F
:10044000B090C601DC01CB018C199D09AE09BF0932
:1004500088169906AA06BB06D8F681C082E080936A
:10046000C1010093C0018FEF8093BF011092BE01C4
:100470001093BD01A9ECB1E0EDE9F1E080E01817BF
:1004800021F09D9191938F5FFACF10929C019091F2
:100490009C018D2F880F892B80939C0180919B015B
:1004A000813089F510929B010E94CB016B017C0188
:1004B00080919C018093BB008091C3019091C40105
:1004C000A091C501B091C601892B8A2B8B2BA9F075
:1004D0000E94CB010091C3011091C4012091C5017C
:1004E0003091C601DC01CB018C199D09AE09BF0911
:1004F000081719072A073B0790F18091BC0083FD7C
:10050000D7CF85EC01C085EE8093BC000E94CB0163
:100510006B017C018091C101823039F58091C3016A
:100520009091C401A091C501B091C601892B8A2B7D
:100530008B2B81F30E94CB010091C3011091C40168
:100540002091C5013091C601DC01CB018C199D09B8
:10055000AE09BF09081719072A073B07D8F680918B
:10056000C2010E94AA01C5E013C08091BF018F3F64
:1005700079F08091BF01803241F08091BF018033DA
:1005800031F0C4E005C0C1E003C0C2E001C0C3E077
:100590001092C8011092EA011092C7018C2FDF91CE
:1005A000CF911F910F91FF90EF90DF90CF90BF9070
:1005B000AF909F908F9008958F929F92AF92BF922D
:1005C000CF92DF92EF92FF926B017C010E94CB01F0
:1005D0004B015C01C114D104E104F104F1F00E946B
:1005E000CB01DC01CB0188199909AA09BB09883E16
:1005F0009340A105B10570F321E0C21AD108E108CA
:10060000F10888EE880E83E0981EA11CB11CC1146D
:10061000D104E104F10419F7DDCFFF90EF90DF90F2
:10062000CF90BF90AF909F908F900895CF92DF9220
:10063000EF92FF920F931F93CF93DF936C017A0198
:100640008B01C0E0D0E0CE15DF0581F0D8016D91BF
:100650008D01D601ED91FC910190F081E02DC60154
:100660000995892B11F02196EECF7E01C701DF910C
:10067000CF911F910F91FF90EF90DF90CF90089551
:10068000089580E090E00895FC01538D448D252F5E
:1006900030E0842F90E0821B930B541710F0CF961C
:1006A000089501970895FC01918D828D981761F04E
:1006B000828DDF01A80FB11D5D968C91928D9F5F99
:1006C0009F73928F90E008958FEF9FEF0895FC0144
:1006D000918D828D981731F0828DE80FF11D858DF7
:1006E00090E008958FEF9FEF0895FC01918D228D8A
:1006F000892F90E0805C9F4F821B91098F7399270F
:10070000089587EF91E00E94750321E0892B09F499
:1007100020E0822F0895FC01848DDF01A80FB11D18
:10072000A35ABF4F2C91848D90E001968F73992727
:10073000848FA689B7892C93A089B1898C91837005
:1007400080648C93938D848D981306C00288F389FE
:10075000E02D80818F7D80830895EF92FF920F932B
:100760001F93CF93DF93EC0181E0888F9B8D8C8D5D
:10077000981305C0E889F989808185FD26C0F62E89
:100780000B8D10E00F5F1F4F0F731127E02E8C8D24
:10079000E8120CC00FB607FCFACFE889F98980810E
:1007A00085FFF5CFCE010E948B03F1CF8B8DFE012B
:1007B000E80FF11DE35AFF4FF0829FB7F8940B8FBB
:1007C000EA89FB89808180620AC09FB7F894EE892C
:1007D000FF896083E889F9898081837080648083E0
:1007E0009FBF81E090E0DF91CF911F910F91FF902B
:1007F000EF900895CF93DF93EC01888D8823C9F0A3
:10080000EA89FB89808185FD05C0A889B9898C9119
:1008100086FD0FC00FB607FCF5CF808185FFF2CFB4
:10082000A889B9898C9185FFEDCFCE010E948B03F9
:10083000E7CFDF91CF91089580E090E0892B29F0F8
:100840000E94810381110C9400000895EF92FF92A1
:100850000F931F93CF93DF93EC0169813881432F6E
:1008600050E08A8190E0E8E6F0E021E0261730F4DD
:100870007491870F911D2F5F3196F8CF633018F078
:10088000337009F401966DE671E0469F9001479F31
:10089000300D569F300D1124215031094D5F5F4FAF
:1008A0005695479556954795240F351F280F391FA4
:1008B000A8E1B0E00E942D092B817B018C01E20EA2
:1008C000F11C011D111DA8019701ACE3B0E00E94CD
:1008D00022092C817B018C01E20EF11C011D111DEE
:1008E000A80197010E9422092D81022F10E020E02B
:1008F00030E000581C4B2249374C600F711F821F9B
:10090000931FDF91CF911F910F91FF90EF9008956A
:1009100085ED8093BC008091C3019091C401A091AA
:10092000C501B091C6010796A11DB11D23E0B69582
:10093000A795979587952A95D1F72091BC0024FF1C
:100940001CC04091C3015091C4016091C5017091D8
:10095000C601452B462B472B81F30097A105B10516
:1009600041F025E32A95F1F700000197A109B109AB
:10097000E4CF8091C2010C94AA011092C1010895A4
:100980000E9442098F929F92AF92BF92CF92DF92C4
:10099000EF92FF920F931F93CF93DF938C0181E02F
:1009A0008093C70188E68093E9011092C8011092F4
:1009B000EA0160E08BEE91E00E94100181E00E946C
:1009C000F0010E94CB016B017C01C091C101CC23DD
:1009D00039F18091C3019091C401A091C501B091FA
:1009E000C601892B8A2B8B2B81F30E94CB0180902F
:1009F000C3019090C401A090C501B090C601DC0174
:100A0000CB018C199D09AE09BF0988169906AA0663
:100A1000BB06D8F68091C2010E94AA01C0E08DC039
:100A200081E08093C1018093C0019FEF9093BF014B
:100A30001092BE0196E09093BD0180939C0180913D
:100A40009C01806D80939C0180919B01813089F590
:100A500010929B010E94CB016B017C0180919C0153
:100A60008093BB008091C3019091C401A091C50106
:100A7000B091C601892B8A2B8B2BA9F00E94CB0148
:100A80008090C3019090C401A090C501B090C601B0
:100A9000DC01CB018C199D09AE09BF0988169906A6
:100AA000AA06BB0690F18091BC0083FDD7CF85ECF0
:100AB00001C085EE8093BC000E94CB016B017C01DC
:100AC0008091C101813031F58091C3019091C401C1
:100AD000A091C501B091C601892B8A2B8B2B81F384
:100AE0000E94CB018090C3019090C401A090C501E9
:100AF000B090C601DC01CB018C199D09AE09BF097C
:100B000088169906AA06BB06D8F68091C2010E94F3
:100B1000AA0113C08091BE01873018F48091BE01F4
:100B200001C087E0ADE9B1E0E1E3F1E0C0E0C81762
:100B300021F09D919193CF5FFACF10925201C09313
:100B400051018BEE91E00E94C7008F77982F92950C
:100B50009F70DAEFF82E9D9FF00C11248BEE91E040
:100B60000E94C7009C01332794E0359527959A95FC
:100B7000E1F7E82ED29FE00C11248BEE91E00E9469
:100B8000C7009C01332744E0359527954A95E1F746
:100B9000D82ED29FD00C11248BEE91E00E94C7007A
:100BA0008BEE91E00E94C7009C01332754E03595FD
:100BB00027955A95E1F7C82ED29FC00C11248BEED1
:100BC00091E00E94C7009C01332764E0359527958A
:100BD0006A95E1F7C82FD29FC00D11248BEE91E0EA
:100BE0000E94C7009C01332774E0359527957A95BC
:100BF000E1F7D29F800D1124F8018083C183C28266
:100C0000D382E482F582C801DF91CF911F910F91C9
:100C1000FF90EF90DF90CF90BF90AF909F908F901C
:100C200008951F920F920FB60F9211242F933F93A6
:100C30004F935F936F937F938F939F93AF93BF93E4
:100C4000EF93FF938091B900887F803609F49CC0B0
:100C500068F5883209F45BC090F4803109F454C01F
:100C600038F4882309F4F6C0883009F44DC0F6C082
:100C7000883109F44CC0803209F45DC0EFC0803483
:100C800009F468C048F4803309F455C0883309F08A
:100C9000E5C08093BF01D8C0803509F44FC08835C6
:100CA00009F45DC0883409F0D9C0D6C0883909F488
:100CB000C7C0A8F4883709F467C038F4883609F447
:100CC00063C0803709F460C0C9C0883809F4B8C06F
:100CD000803909F45FC0803809F0C0C05BC0803B38
:100CE00009F486C038F4803A09F466C0883A09F4F9
:100CF0007FC0B4C0803C09F4A7C0883C09F4A4C0FC
:100D0000883B09F48AC0AAC080919C0110C09091D0
:100D1000BE018091BD01981770F5E091BE0181E0A0
:100D20008E0F8093BE01F0E0E356FE4F80818093EA
:100D3000BB0085EC86C08093BF018EC0E091BE01F0
:100D400081E08E0F8093BE018091BB00F0E0E356FE
:100D5000FE4F80839091BE018091BD016EC0E091F5
:100D6000BE0181E08E0F8093BE018091BB00F0E058
:100D7000E356FE4F80838091C00181116DC081E0F8
:100D800080939B0184EA61C083E08093C10110924B
:100D90009A01CFCF80919A01803208F051C0E09142
:100DA0009A0181E08E0F80939A018091BB00F0E060
:100DB000E658FE4F8083BDCF85EC8093BC00109237
:100DC000C10180919A01803230F4E0919A01F0E003
:100DD000E658FE4F108260919A0170E0E091780130
:100DE000F09179018AE791E0099510929A0136C055
:100DF00084E08093C1011092770110927601E09116
:100E00007401F0917501099580917601811105C0F9
:100E100081E08093760110925401E091770181E0A6
:100E20008E0F80937701F0E0EC5AFE4F8081809323
:100E3000BB009091770180917601981708F479CFE3
:100E400085E88093BC000AC085EC8093BC001092BA
:100E5000C10104C01092BF010E948804FF91EF916C
:100E6000BF91AF919F918F917F916F915F914F91C2
:100E70003F912F910F900FBE0F901F9018951F92CA
:100E80000F920FB60F9211242F933F938F939F933E
:100E9000AF93BF938091290190912A01A0912B01DA
:100EA000B0912C013091280123E0230F2D3720F43D
:100EB0000196A11DB11D05C026E8230F0296A11DB4
:100EC000B11D209328018093290190932A01A093BA
:100ED0002B01B0932C0180912D0190912E01A091B6
:100EE0002F01B09130010196A11DB11D80932D01FC
:100EF00090932E01A0932F01B0933001BF91AF9139
:100F00009F918F913F912F910F900FBE0F901F9047
:100F100018951F920F920FB60F9211242F933F93A3
:100F20004F935F936F937F938F939F93AF93BF93F1
:100F3000EF93FF9387EF91E00E948B03FF91EF9176
:100F4000BF91AF919F918F917F916F915F914F91E1
:100F50003F912F910F900FBE0F901F9018951F92E9
:100F60000F920FB60F9211242F938F939F93EF93AD
:100F7000FF93E0910702F09108028081E0910D0259
:100F8000F0910E0282FD12C09081809110028F5F5D
:100F90008F7320911102821751F0E0911002F0E05E
:100FA000E950FE4F958F8093100201C08081FF9120
:100FB000EF919F918F912F910F900FBE0F901F90E7
:100FC0001895EBEEF1E01382128288EE93E0A0E038
:100FD000B0E084839583A683B78324E031E0318336
:100FE0002083E7EFF1E01382128284839583A68346
:100FF000B78386E191E09183808385EC90E09587CB
:10100000848784EC90E09787868780EC90E0918BD2
:10101000808B81EC90E0938B828B82EC90E0958BBF
:10102000848B86EC90E0978B868B118E128E138EBC
:10103000148E0895CF93DF9300D000D000D0CDB7A9
:10104000DEB7789484B5826084BD84B5816084BD48
:1010500085B5826085BD85B5816085BD80916E0056
:10106000816080936E001092810080918100826087
:1010700080938100809181008160809381008091C4
:1010800080008160809380008091B10084608093B3
:10109000B1008091B00081608093B00080917A00AF
:1010A000846080937A0080917A00826080937A00D5
:1010B00080917A00816080937A0080917A008068C4
:1010C00080937A001092C100109252011092510147
:1010D0001092C8011092EA010E948C0185EB90E009
:1010E000909375018093740186EB90E09093790161
:1010F0008093780181E08093C70188E68093E901BD
:1011000081E00E94F001EEE9F0E02491EAE8F0E0ED
:101110008491882399F090E0880F991FFC01ED5885
:10112000FF4FA591B491FC01E358FF4F8591949135
:101130008FB7F894EC91E22BEC938FBFE09107020C
:10114000F091080282E08083E0910302F0910402B2
:101150001082E0910502F09106028FEC80831092DC
:101160000F02E0910B02F0910C0286E08083E09187
:101170000902F0910A02808180618083E091090276
:10118000F0910A02808188608083E0910902F091E9
:101190000A02808180688083E0910902F0910A024E
:1011A00080818F7D8083CE0101960E94C204CE0192
:1011B00001960E9426046093240170932501809378
:1011C000260190932701CE0101960E94C204CE0110
:1011D00001960E942604C0902401D0902501E09041
:1011E0002601F09027016C157D058E059F0538F1CD
:1011F00004E010E060E083E00E943F0164E670E0FC
:1012000080E090E00E94DC0261E083E00E943F0108
:1012100068EE73E080E090E00E94DC02015011096A
:1012200049F780EDC80E82E0D81EE11CF11CC09287
:101230002401D0922501E0922601F09227010E941C
:101240001C04C1CF0E942D09A59F900DB49F900D45
:10125000A49F800D911D11240895A29FB001B39FFA
:10126000C001A39F700D811D1124911DB29F700DAF
:10127000811D1124911D0895EE0FFF1F0590F4911B
:10128000E02D099481E090E0F8940C944709F894DB
:02129000FFCF8E
:10129200000000001001E3004103B700DB00C700BB
:1012A200B80000000000AD0316034403FA037503FF
:0412B2005303670378
:00000001FF
